:020000040800F2
:10000000E804002045010008950800080F080008D2
:10001000910800083D050008F311000800000000E9
:10002000000000000000000000000000D9080008E7
:10003000410500080000000097080008650B000853
:100040005F0100085F0100085F0100085F01000810
:100050005F0100085F0100085F0100085F01000800
:100060005F0100085F0100085F0100085F010008F0
:100070005F0100085F0100085F0100085F010008E0
:100080005F0100085F0100085F0100085F010008D0
:100090005F0100085F0100085F0100085F010008C0
:1000A0005F0100085F0100085F0100085F010008B0
:1000B0005F0100085F0100085F0100085F010008A0
:1000C0005F0100085F0100085F0100085F01000890
:1000D0005F0100080D1100085F0100085F010008C2
:1000E0005F0100085F0100085F0100085F01000870
:1000F0005F0100085F0100085F0100085F01000860
:100100005F0100085F0100085F0100085F0100084F
:100110005F0100085F0100085F0100085F0100083F
:100120005F0100085F0100085F0100085F0100082F
:10013000DFF80CD000F0F0F9004800472113000868
:10014000E80400200648804706480047FEE7FEE72F
:10015000FEE7FEE7FEE7FEE7FEE7FEE7FEE7FEE777
:10016000690B0008310100082DE9FE4F804681EA45
:100170000300C00F0C46009021F0004123F0004521
:10018000B8EB0200A94105D24046214690461C46E4
:100190000B46024623F00040104347D0270DC7F31B
:1001A0000A00C3F30A510290401A019040286BDA0A
:1001B000C3F3130040F4801B0098924620B1002343
:1001C000D2EB030A63EB0B0B01985946C0F14002D6
:1001D000504600F012F906460D4650465946019A1F
:1001E00000F02AF910EB08006141002487EA11525F
:1001F00084EAE7731A4340D0009A62B3019A012A55
:100200004FEA075215DC001B61EB02014FF0004280
:1002100002EA0752CDE90042001C41F58011324646
:100220002B4600F02AF903B0BDE8F08F4046214686
:10023000F9E7001B61EB0201001C41F58013001877
:100240005B412018A2F5001747EB030140EAD57087
:10025000B6196D4111E06D084FEA360645EAC075E2
:100260004FEA0752001B61EB0201001C41F58011AF
:1002700049084FEA30000019514132462B4603B07D
:10028000BDE8F04F00F0EAB80098012240000023DA
:10029000D0EB020263EBE073009821464FEAE07472
:1002A000B8EB000061EB0401E9E783F000435BE792
:1002B00081F0004158E72DE9FE4F81EA030404F084
:1002C000004421F0004100944FF0000B23F0004364
:1002D00050EA01045ED052EA03045BD0C3F30A542F
:1002E000C1F30A552C44A4F2F3340194A0FB025448
:1002F000C1F3130141F48011C3F3130343F48013DA
:1003000001FB024400FB034E840A970A44EA81542D
:1003100047EA8357A4FB076802958D0A05FB07850A
:100320004FEA932C04FB0C542705029D4FEA065814
:1003300047EA1637B5EB08056EEB070C870E920EF1
:1003400047EA811742EA8312A7FB0201B6EB0B01D1
:1003500064EB00042B0D43EA0C335E1844EB1C5095
:10036000DA465146E7FB0201C5F313044FEA0B33AB
:1003700043EA14534FEA0432019C43EA0603A4F112
:100380000C040294009CCDE900B400F076F803B0B0
:10039000BDE8F08F00200146F9E70EB5C10F80EAF5
:1003A000E0700844CA07002140F233438DE80E0094
:1003B0000A460B4600F061F803B000BD70B5C1F30A
:1003C0000A5201F000450024C1F3130140F2FF334B
:1003D00041F480119A4201DA002070BD40F23343AB
:1003E0009A42A2F2334203DC524200F015F800E0D8
:1003F00090402C43F1D0404270BD202A04DB203ACB
:1004000000FA02F1002070479140C2F1200320FA67
:1004100003F3194390407047202A04DB203A21FA65
:1004200002F00021704721FA02F3D040C2F120020D
:100430009140084319467047202A06DBCB17203A23
:1004400041FA02F043EAE07306E041FA02F3D040D9
:10045000C2F12002914008431946704710B5141E9E
:1004600073F1000408DA401C41F1000192185B416D
:100470001A4301D120F0010010BD2DE9F04D924644
:100480009B4611B1B1FA81F202E0B0FA80F220325B
:100490009046FFF7B2FF04460F4640EA0A0041EAE1
:1004A0000B0153465A46084313D0114653EA010044
:1004B00019D0C8F140025046FFF7AEFF05460E4680
:1004C000504659464246FFF798FF084305D00120A1
:1004D00004E020463946BDE8F08D0020054346EA99
:1004E000E0762C4337430A986305E40AA0EB080042
:1004F0000022FD0A44EA47540A3002D50020014692
:10050000E9E7010510196941DDE90845001969416C
:10051000BDE8F04DA2E70000064C074D06E0E0689C
:1005200040F0010394E8070098471034AC42F6D33A
:10053000FFF702FEA0130008C013000800BFFEE78B
:1005400070472DE9F04102460025002600200023D7
:100550000024002791F803C00CF00F0591F803C0A8
:100560000CF0100CBCF1000F03D091F802C04CEA63
:10057000050591F800C0BCF1000F31D014680020CF
:100580002BE04FF0010C0CFA00F3B1F800C00CEABC
:1005900003069E4220D183004FF00F0C0CFA03F7A4
:1005A000BC4305FA03FC4CEA040491F803C0BCF117
:1005B000280F06D14FF0010C0CFA00FCC2F814C051
:1005C0000AE091F803C0BCF1480F05D14FF0010CCF
:1005D0000CFA00FCC2F810C0401C0828D1D31460EB
:1005E000B1F800C0BCF1FF0F34DD546800202EE0EC
:1005F00000F1080C4FF0010808FA0CF3B1F800C044
:100600000CEA03069E4221D183004FF00F0C0CFA36
:1006100003F7BC4305FA03FC4CEA040491F803C059
:10062000BCF1280F05D100F1080C08FA0CF8C2F84B
:10063000148091F803C0BCF1480F07D100F1080CF9
:100640004FF0010808FA0CF8C2F81080401C082886
:10065000CED35460BDE8F0810246002093680B4081
:100660000BB1012000E0002070474161704701613B
:10067000704770B504460D460021012000F02EF9A8
:100680002146002000F02AF90021012000F084F921
:100690002146002000F080F9A8B200F0DDFD70BD19
:1006A00070B504460D46604246B23146012000F066
:1006B00015F90021084600F011F93146012000F03B
:1006C0006BF90021084600F067F9A8B200F0C4FDFC
:1006D00070BD70B504460D46C4F1640046B22146B3
:1006E000002000F0FBF83146012000F0F7F8214629
:1006F000002000F051F93146012000F04DF9A8B278
:1007000000F0AAFD70BD2DE9F04104460D46C4F18C
:10071000640046B2604247B2704241B2002000F02D
:10072000DDF83946012000F0D9F8704241B20020CE
:1007300000F032F93946012000F02EF9A8B200F09D
:100740008BFDBDE8F0812DE9F04104460D46C4F172
:10075000640046B2704247B23146012000F0BEF854
:100760003946002000F0BAF83146012000F014F9B3
:100770003946002000F010F9A8B200F06DFDBDE888
:10078000F081000010B504460021012000F0A6F819
:100790000021084600F0A2F84FF480410E48FFF710
:1007A00064FF4FF480510C48FFF75FFF00210120E8
:1007B00000F0F2F80021084600F0EEF84FF4004196
:1007C0000548FFF752FF4FF400510348FFF74DFF74
:1007D000A0B200F041FD10BD000C014070B5044610
:1007E0000D46604246B23146012000F077F82146BE
:1007F000002000F073F83146012000F0CDF82146CA
:10080000002000F0C9F8A8B200F026FD70BD00BFBE
:10081000FEE7000008B501211C2000F04DF8102073
:10082000ADF8000048208DF8030069461548FFF731
:1008300088FE4FF48070ADF8000010208DF80300A2
:1008400003208DF8020069460F48FFF77AFE042066
:10085000ADF8000010208DF8030003208DF8020091
:1008600069460A48FFF76DFE0820ADF80000102029
:100870008DF8030003208DF8020069460348FFF756
:1008800060FE08BD00100140000801400014014056
:1008900000BFFEE77047704729B1064AD26902439C
:1008A000044BDA6104E0034AD2698243014BDA6106
:1008B000704700000010024029B1064A92690243C5
:1008C000044B9A6104E0034A92698243014B9A61A6
:1008D0007047000000100240704700002DE9FC47FF
:1008E00082460C46642C00DB642414F1640F01DCA6
:1008F0006FF063042046FFF750FD21F000410746EA
:100900000022214BFFF7D7FC054600221F4BFFF7C3
:10091000CFFCCDE90001FFF751FD0FFA80F9BAF1E4
:10092000000F03D0BAF1010F2AD114E01FFA89F1A8
:10093000174800F094FB002C05DD4FF4804115486A
:10094000FFF793FE06E0002C04DA4FF480411148D3
:10095000FFF78DFE14E01FFA89F10D4800F07BFBD4
:10096000002C05DD4FF480510A48FFF780FE06E0B9
:10097000002C04DA4FF480510648FFF776FE00BFE2
:1009800000BFBDE8FC870000000052400021BC40D1
:1009900000080040000C01402DE9FC4782460C464F
:1009A000642C00DB642414F1640F01DC6FF0630439
:1009B0002046FFF7F2FC21F0004107460022214BC0
:1009C000FFF779FC054600221F4BFFF771FCCDE9CC
:1009D0000001FFF7F3FC0FFA80F9BAF1000F03D022
:1009E000BAF1010F2AD114E01FFA89F1174800F07B
:1009F00038FB002C05DD4FF400411548FFF735FEAC
:100A000006E0002C04DA4FF400411148FFF72FFEF6
:100A100014E01FFA89F10D4800F01FFB002C05DDE2
:100A20004FF400510A48FFF722FE06E0002C04DADA
:100A30004FF400510648FFF718FE00BF00BFBDE8A5
:100A4000FC870000000052400021BC40000800402C
:100A5000000C014010B500F001F810BD0CB50020ED
:100A6000019000903348006840F4803031490860BC
:100A700000BF3048006800F4003000900198401C2E
:100A80000190009818B90198B0F5A06FF1D12948EC
:100A9000006800F4003010B10120009001E0002057
:100AA00000900098012843D12348006840F01000CE
:100AB000214908600846006820F0030008600846E5
:100AC000006840F0020008601A4840681949486010
:100AD0000846406848600846406840F480604860C6
:100AE0000846406820F47C1048600846406840F49E
:100AF000E81048600846006840F08070086000BF59
:100B00000C48006800F000700028F9D009484068DF
:100B100020F00300074948600846406840F00200A2
:100B2000486000BF0348406800F00C000828F9D175
:100B30000CBD00000010024000200240042808D133
:100B40004FF0E021096941F004014FF0E02211610A
:100B500007E04FF0E021096921F004014FF0E022A5
:100B6000116170477047000010B51348006840F0ED
:100B700001001149086008464068104908400E49C4
:100B80004860084600680E4908400B49086008465E
:100B9000006820F4802008600846406820F4FE00C9
:100BA00048604FF41F008860FFF754FF4FF000606B
:100BB0000449086010BD0000001002400000FFF86A
:100BC000FFFFF6FE08ED00E030B589B005460C46A3
:100BD00001210420FFF760FE01210820FFF76CFED1
:100BE0004FF48050ADF8040003208DF8060010206B
:100BF0008DF8070001A95448FFF7A3FC4020ADF889
:100C0000040003208DF8060018208DF8070001A9C4
:100C10004D48FFF796FC4FF48040ADF804000320E8
:100C20008DF8060010208DF8070001A94648FFF74F
:100C300088FC4FF48070ADF8040003208DF80600A6
:100C400018208DF8070001A93F48FFF77AFC4FF400
:100C50000050ADF8040003208DF8060010208DF838
:100C6000070001A93848FFF76CFC8020ADF80400AC
:100C700003208DF8060018208DF8070001A93248DE
:100C8000FFF75FFC4FF40040ADF8040003208DF83F
:100C9000060010208DF8070001A92B48FFF751FC32
:100CA0004FF40070ADF8040003208DF80600182002
:100CB0008DF8070001A92448FFF743FCADF81C504C
:100CC000ADF818400020ADF81E00ADF81A0006A9D6
:100CD0001E4800F0C9F97020ADF808000120ADF8F9
:100CE0000A000020ADF80E00ADF8100002A9174868
:100CF00000F00CF902A9154800F052F802A91348B7
:100D000000F0A4F802A9114800F05AF901210F4897
:100D100000F036F808210D4800F048F908210B488A
:100D200000F08AF80821094800F0E2F80821074895
:100D300000F084F90121054800F00AF80121034878
:100D400000F012F809B030BD000C0140000800406E
:100D500021B1028842F08002028004E002884FF64E
:100D60007F731A400280704721B1028842F001026D
:100D7000028004E002884FF6FE731A40028070473A
:100D800031B1B0F8442042F40042A0F8442005E01C
:100D9000B0F84420C2F30E02A0F8442070470000CF
:100DA00070B5002400220023058C4FF6FE763540F6
:100DB0000584028C8388048B4FF68F752C40B51EFA
:100DC0002C400D882C43751E2A400D892A434D88DE
:100DD0002A43144DA8420BD0134DA84208D0134DFE
:100DE000A84205D0124DA84202D0124DA84213D1FC
:100DF0004FF6F7752A404D892A434FF6FB752A4076
:100E00008D882A434FF6FF652B404FF6FF552B4048
:100E10008D892B43CD892B4383800483CD888586A0
:100E2000028470BD002C01400034014000400140AC
:100E300000440140004801400A460021018B4FF662
:100E4000F7731940114301837047000070B5002407
:100E500000220023058C4FF6EF7635400584028C86
:100E60008388048B48F6FF752C404FF6FF452C40D5
:100E70000D884FF6FF7606EA05252C434FF6DF7501
:100E80002A400D8906EA05152A434D8806EA05150C
:100E90002A43154DA84202D0144DA8421DD14FF649
:100EA0007F752A404D894FF6FF7606EA05152A43DD
:100EB0004FF6BF752A408D8806EA05152A434FF67E
:100EC000FF352B404FF2FF752B408D8906EA8505D3
:100ED0002B43CD8906EA85052B4383800483CD8887
:100EE0000587028470BD0000002C014000340140E1
:100EF0000A460021018B4FF2FF7319404FF6FF7332
:100F000003EA0223194301837047000070B50024EF
:100F100000220023058C4FF6FF6635400584028CC5
:100F20008388848B4FF68F752C404FF6FC752C40D0
:100F30000D882C434FF6FF552A400D894FF6FF765A
:100F400006EA05252A434D8806EA05252A43154D5C
:100F5000A84202D0144DA8421DD14FF2FF752A407D
:100F60004D894FF6FF7606EA05252A434FF6FF35F1
:100F70002A408D8806EA05252A434EF6FF752B4048
:100F80004DF6FF752B408D8906EA05152B43CD895B
:100F900006EA05152B4383808483CD8885870284E8
:100FA00070BD0000002C0140003401400A460021C1
:100FB000818B4FF6F773194011438183704700000E
:100FC00070B5002200230024058C4EF6FF763540D4
:100FD0000584038C8488828B48F6FF752A404FF67F
:100FE000FF452A400D884FF6FF7606EA05252A437D
:100FF0004DF6FF752B400D8906EA05352B434D88CC
:1010000006EA05352B430B4DA84202D00A4DA842F3
:1010100008D14BF6FF752C408D894FF6FF7606EA16
:1010200085152C4384808283CD88A0F840500384AA
:1010300070BD0000002C0140003401400A46002130
:10104000818B4FF2FF7319404FF6FF7303EA0223BF
:101050001943818370478186704701877047818774
:101060007047A0F840107047002202881D4B98423C
:101070000ED01D4B98420BD0B0F1804F08D01B4BC7
:10108000984205D01A4B984202D01A4B984204D18C
:101090004FF68F731A404B881A43174B984207D06C
:1010A000164B984204D04FF6FF431A40CB881A43A0
:1010B00002808B8883850B8803850A4B98420BD06E
:1010C000094B984208D00E4B984205D00D4B9842E0
:1010D00002D00D4B984201D10B7A03860123838203
:1010E00070470000002C0140003401400004004023
:1010F00000080040000C00400010004000140040B8
:1011000000400140004401400048014010B540F259
:1011100025511D4800F03EF810B31B4800F064F85C
:10112000C4B21A48008800F40040C8B917480088C3
:1011300000F4804060B10A2C03D0002013490880DD
:1011400020E01248008840F400401049088019E06F
:101150000D2C06D10D48008840F480400B490880D2
:1011600010E00A480088C0F30D0009490C540748F4
:101170000088401C0549088008460088C72801DD12
:101180000020088010BD0000003801401C00002035
:101190002000002070B50246002400230025002016
:1011A00040F66A16B14200D100BFC1F3421501F00A
:1011B0001F03012606FA03F3012D02D1968933405D
:1011C00006E0022D02D1168A334001E0968A3340B0
:1011D0000C12012606FA04F41688344013B10CB13F
:1011E000012000E0002070BD01468888C0F308009F
:1011F000704700BFFEE702E008C8121F08C1002ABE
:10120000FAD170477047002001E001C1121F002A87
:10121000FBD1704710B56FF00400FFF78FFC0A4850
:1012200000680A49B0FBF1F00949087008460078E7
:1012300000EB4001C1EBC0104FF6FF7101EAC000A6
:101240000449088010BD00000000002000127A0050
:1012500014000020160000200146114A12884A435B
:101260004FF0E0235A6100229A611A46126942F057
:1012700001021A6100BF4FF0E022106900F0010284
:101280001AB100F48032002AF5D04FF0E022126942
:1012900022F001024FF0E0231A6100229A617047A8
:1012A0001600002010B510211B48FFF7D5F90446A1
:1012B00004E010211848FFF7CFF904461021164822
:1012C000FFF7CAF90028F4D01EE00A20FFF7C4FF98
:1012D00010211148FFF7C0F90446012C0FD101027B
:1012E0000E48FFF7C4F904E04FF480710B48FFF794
:1012F000BCF910210848FFF7AFF928B9F4E74FF41B
:1013000080710648FFF7B1F910210348FFF7A4F9EF
:101310000028DAD110BD0000001001400008014093
:10132000FFF778FFFFF776FA002141F61F40FFF73D
:101330004BFC4FF4FA70FFF725FA2FE04FF4FA70E8
:10134000FFF720FAFFF7AEFF4FF47A714620FFF760
:10135000FAF94FF4FA70FFF715FA4FF47A71462054
:10136000FFF73CFA4FF4FA70FFF70CFA4FF47A717A
:101370004620FFF77EF94FF47A714620FFF790F987
:101380004FF47A714620FFF7BEF94FF47A71462088
:10139000FFF79FF94FF4FA70FFF7F4F9CEE700007A
:1013A000C01300080000002020000000F611000813
:1013B000E013000820000020C80400000612000806
:1013C00000A24A0400000000000000000102030423
:1013D00006070809000000000000000000000000EF
:0400000508000145A9
:00000001FF
